{
  "transactions": [
    {
      "hash": "0xdaec1c3263754a95005e971010353837e7ce1b1c52e0cbfe477a520ac1f45be1",
      "transactionType": "CALL",
      "contractName": null,
      "contractAddress": "0x36fcdd5d5ab8a213cf6802f91bb3d3c0411b8e47",
      "function": "mint(address,uint256)",
      "arguments": [
        "0x548aDF78009e45Aa298EebA6dcCEB998AB726029",
        "1"
      ],
      "transaction": {
        "from": "0xafc8cf4cb5ad3e310f7253f1d7edd5030f3ae084",
        "to": "0x36fcdd5d5ab8a213cf6802f91bb3d3c0411b8e47",
        "gas": "0x1889c",
        "value": "0x0",
        "input": "0x40c10f19000000000000000000000000548adf78009e45aa298eeba6dcceb998ab7260290000000000000000000000000000000000000000000000000000000000000001",
        "nonce": "0x22",
        "chainId": "0xaa044c"
      },
      "additionalContracts": [],
      "isFixedGasLimit": false
    }
  ],
  "receipts": [
    {
      "status": "0x1",
      "cumulativeGasUsed": "0x1d08d",
      "logs": [
        {
          "address": "0x36fcdd5d5ab8a213cf6802f91bb3d3c0411b8e47",
          "topics": [
            "0xddf252ad1be2c89b69c2b068fc378daa952ba7f163c4a11628f55a4df523b3ef",
            "0x0000000000000000000000000000000000000000000000000000000000000000",
            "0x000000000000000000000000548adf78009e45aa298eeba6dcceb998ab726029"
          ],
          "data": "0x0000000000000000000000000000000000000000000000000000000000000001",
          "blockHash": "0x28c32475ff7a3dc1ff9b01e98c6dff81de6e19936373be53faca4d28c9a2154f",
          "blockNumber": "0x19175c1",
          "blockTimestamp": "0x6a127355",
          "transactionHash": "0xdaec1c3263754a95005e971010353837e7ce1b1c52e0cbfe477a520ac1f45be1",
          "transactionIndex": "0x1",
          "logIndex": "0x0",
          "removed": false
        },
        {
          "address": "0x36fcdd5d5ab8a213cf6802f91bb3d3c0411b8e47",
          "topics": [
            "0x8d15f4be187d1cac44d7f56628a777d6c381a2f8e8aa445d3cef67eb5bd59344",
            "0x000000000000000000000000548adf78009e45aa298eeba6dcceb998ab726029"
          ],
          "data": "0x0000000000000000000000000000000000000000000000000000000000000001",
          "blockHash": "0x28c32475ff7a3dc1ff9b01e98c6dff81de6e19936373be53faca4d28c9a2154f",
          "blockNumber": "0x19175c1",
          "blockTimestamp": "0x6a127355",
          "transactionHash": "0xdaec1c3263754a95005e971010353837e7ce1b1c52e0cbfe477a520ac1f45be1",
          "transactionIndex": "0x1",
          "logIndex": "0x1",
          "removed": false
        }
      ],
      "logsBloom": "0x00000000000000000000000000000000001020000000000000000000000000000000000000000000000000000000000000000000000000000000000000000004000000000010000000000008000000000000000000000000000000000000000000000000020000000000000000000800000000000000000000000010004000000000000000000000000000040000000000000000000010000000000000000000000000000000000000000000000000000000000000000000000000000000000000000002000000000000000000000000000000000008000000000000000020010000000000000000000000000000000000000000000000000000000000000000",
      "type": "0x2",
      "transactionHash": "0xdaec1c3263754a95005e971010353837e7ce1b1c52e0cbfe477a520ac1f45be1",
      "transactionIndex": "0x1",
      "blockHash": "0x28c32475ff7a3dc1ff9b01e98c6dff81de6e19936373be53faca4d28c9a2154f",
      "blockNumber": "0x19175c1",
      "gasUsed": "0x11c3f",
      "effectiveGasPrice": "0xba43b7401",
      "blobGasUsed": "0x64",
      "from": "0xafc8cf4cb5ad3e310f7253f1d7edd5030f3ae084",
      "to": "0x36fcdd5d5ab8a213cf6802f91bb3d3c0411b8e47",
      "contractAddress": null,
      "daFootprintGasScalar": "0x1",
      "l1BaseFeeScalar": "0x0",
      "l1BlobBaseFee": "0x3f12751",
      "l1BlobBaseFeeScalar": "0x0",
      "l1Fee": "0x0",
      "l1GasPrice": "0x3ca417e3",
      "l1GasUsed": "0x640"
    }
  ],
  "libraries": [],
  "pending": [],
  "returns": {},
  "timestamp": 1779594068958,
  "chain": 11142220,
  "commit": "0119092"
}