{
  "transactions": [
    {
      "hash": "0x88344a59479ef23bd18bb47e59c3803ded9d6aff4356747b1f537cf2fe060976",
      "transactionType": "CALL",
      "contractName": null,
      "contractAddress": "0xad3daddd4380d5c542da0f5efac3ac168a1cdf00",
      "function": "mint(address,uint256)",
      "arguments": [
        "0x548aDF78009e45Aa298EebA6dcCEB998AB726029",
        "1"
      ],
      "transaction": {
        "from": "0xafc8cf4cb5ad3e310f7253f1d7edd5030f3ae084",
        "to": "0xad3daddd4380d5c542da0f5efac3ac168a1cdf00",
        "gas": "0xd016",
        "value": "0x0",
        "input": "0x40c10f19000000000000000000000000548adf78009e45aa298eeba6dcceb998ab7260290000000000000000000000000000000000000000000000000000000000000001",
        "nonce": "0x1d",
        "chainId": "0xa4ec"
      },
      "additionalContracts": [],
      "isFixedGasLimit": false
    }
  ],
  "receipts": [
    {
      "status": "0x1",
      "cumulativeGasUsed": "0x31d0f4",
      "logs": [
        {
          "address": "0xad3daddd4380d5c542da0f5efac3ac168a1cdf00",
          "topics": [
            "0xddf252ad1be2c89b69c2b068fc378daa952ba7f163c4a11628f55a4df523b3ef",
            "0x0000000000000000000000000000000000000000000000000000000000000000",
            "0x000000000000000000000000548adf78009e45aa298eeba6dcceb998ab726029"
          ],
          "data": "0x0000000000000000000000000000000000000000000000000000000000000001",
          "blockHash": "0xdca80012eb342ad6f5f59cc13055d2ce26b2e4e2bcaa6083851cfb4d4438f848",
          "blockNumber": "0x40934f9",
          "blockTimestamp": "0x6a12bd4f",
          "transactionHash": "0x88344a59479ef23bd18bb47e59c3803ded9d6aff4356747b1f537cf2fe060976",
          "transactionIndex": "0xe",
          "logIndex": "0x10c",
          "removed": false
        },
        {
          "address": "0xad3daddd4380d5c542da0f5efac3ac168a1cdf00",
          "topics": [
            "0x8d15f4be187d1cac44d7f56628a777d6c381a2f8e8aa445d3cef67eb5bd59344",
            "0x000000000000000000000000548adf78009e45aa298eeba6dcceb998ab726029"
          ],
          "data": "0x0000000000000000000000000000000000000000000000000000000000000001",
          "blockHash": "0xdca80012eb342ad6f5f59cc13055d2ce26b2e4e2bcaa6083851cfb4d4438f848",
          "blockNumber": "0x40934f9",
          "blockTimestamp": "0x6a12bd4f",
          "transactionHash": "0x88344a59479ef23bd18bb47e59c3803ded9d6aff4356747b1f537cf2fe060976",
          "transactionIndex": "0xe",
          "logIndex": "0x10d",
          "removed": false
        }
      ],
      "logsBloom": "0x00000001000000000000000000000000001020000000000000000000000000000000000000000000000000000000000000000000000000000000000000000004000000000000000000000008000000000000000000000000000000000000000000000000020000000000000000000800000000000000000000000010000000000000000000000000000000040000000000000000000010000000000000000000000000000000000000000000000000000000000000000000000000000000000000000002100000000000000000000000000000000000000000000000000020010000000000000000000000000000000000000000000000000008000000000000",
      "type": "0x2",
      "transactionHash": "0x88344a59479ef23bd18bb47e59c3803ded9d6aff4356747b1f537cf2fe060976",
      "transactionIndex": "0xe",
      "blockHash": "0xdca80012eb342ad6f5f59cc13055d2ce26b2e4e2bcaa6083851cfb4d4438f848",
      "blockNumber": "0x40934f9",
      "gasUsed": "0x96a7",
      "effectiveGasPrice": "0x2e90fe98d2",
      "blobGasUsed": "0x64",
      "from": "0xafc8cf4cb5ad3e310f7253f1d7edd5030f3ae084",
      "to": "0xad3daddd4380d5c542da0f5efac3ac168a1cdf00",
      "contractAddress": null,
      "daFootprintGasScalar": "0x1",
      "l1BaseFeeScalar": "0x0",
      "l1BlobBaseFee": "0x4e31a5",
      "l1BlobBaseFeeScalar": "0x0",
      "l1Fee": "0x0",
      "l1GasPrice": "0x581797c",
      "l1GasUsed": "0x640"
    }
  ],
  "libraries": [],
  "pending": [],
  "returns": {},
  "timestamp": 1779613008277,
  "chain": 42220,
  "commit": "49af996"
}