{
  "transactions": [
    {
      "hash": "0x9edb81701c51c09ce978257db305085e0256d6ff662e106bf35f75b6c4d595b3",
      "transactionType": "CALL",
      "contractName": null,
      "contractAddress": "0xad3daddd4380d5c542da0f5efac3ac168a1cdf00",
      "function": "mint(address,uint256)",
      "arguments": [
        "0x8eED60B2fB3776e5106dDED20E0d3ABA44fF82E8",
        "1"
      ],
      "transaction": {
        "from": "0xafc8cf4cb5ad3e310f7253f1d7edd5030f3ae084",
        "to": "0xad3daddd4380d5c542da0f5efac3ac168a1cdf00",
        "gas": "0x12c69",
        "value": "0x0",
        "input": "0x40c10f190000000000000000000000008eed60b2fb3776e5106dded20e0d3aba44ff82e80000000000000000000000000000000000000000000000000000000000000001",
        "nonce": "0x1c",
        "chainId": "0xa4ec"
      },
      "additionalContracts": [],
      "isFixedGasLimit": false
    }
  ],
  "receipts": [
    {
      "status": "0x1",
      "cumulativeGasUsed": "0x2b17cc",
      "logs": [
        {
          "address": "0xad3daddd4380d5c542da0f5efac3ac168a1cdf00",
          "topics": [
            "0xddf252ad1be2c89b69c2b068fc378daa952ba7f163c4a11628f55a4df523b3ef",
            "0x0000000000000000000000000000000000000000000000000000000000000000",
            "0x0000000000000000000000008eed60b2fb3776e5106dded20e0d3aba44ff82e8"
          ],
          "data": "0x0000000000000000000000000000000000000000000000000000000000000001",
          "blockHash": "0xc1df4c45ad68a8982cf108a7914f30c9082bccc6c23744fece1567ce86dea2dc",
          "blockNumber": "0x409346f",
          "blockTimestamp": "0x6a12bcc5",
          "transactionHash": "0x9edb81701c51c09ce978257db305085e0256d6ff662e106bf35f75b6c4d595b3",
          "transactionIndex": "0xc",
          "logIndex": "0xf5",
          "removed": false
        },
        {
          "address": "0xad3daddd4380d5c542da0f5efac3ac168a1cdf00",
          "topics": [
            "0x8d15f4be187d1cac44d7f56628a777d6c381a2f8e8aa445d3cef67eb5bd59344",
            "0x0000000000000000000000008eed60b2fb3776e5106dded20e0d3aba44ff82e8"
          ],
          "data": "0x0000000000000000000000000000000000000000000000000000000000000001",
          "blockHash": "0xc1df4c45ad68a8982cf108a7914f30c9082bccc6c23744fece1567ce86dea2dc",
          "blockNumber": "0x409346f",
          "blockTimestamp": "0x6a12bcc5",
          "transactionHash": "0x9edb81701c51c09ce978257db305085e0256d6ff662e106bf35f75b6c4d595b3",
          "transactionIndex": "0xc",
          "logIndex": "0xf6",
          "removed": false
        }
      ],
      "logsBloom": "0x00000001000000000000000000000000001000000000000000000000000000000000000000000000000000000000000000000000000000000000000000000000000000000000000000000008000000000000000000000000000000000000000000000000020000000000000000000800000000000000000000000010000000000000000000000000000000040000000000000000000000001000000000000000000000000000000000000000000000000000000000000000000000000100000000000002100000000000000000000000000000000000000000000000000020010000000000000000000000080000000000000000000000000008000000000000",
      "type": "0x2",
      "transactionHash": "0x9edb81701c51c09ce978257db305085e0256d6ff662e106bf35f75b6c4d595b3",
      "transactionIndex": "0xc",
      "blockHash": "0xc1df4c45ad68a8982cf108a7914f30c9082bccc6c23744fece1567ce86dea2dc",
      "blockNumber": "0x409346f",
      "gasUsed": "0xd97f",
      "effectiveGasPrice": "0x2e90fe98d3",
      "blobGasUsed": "0x64",
      "from": "0xafc8cf4cb5ad3e310f7253f1d7edd5030f3ae084",
      "to": "0xad3daddd4380d5c542da0f5efac3ac168a1cdf00",
      "contractAddress": null,
      "daFootprintGasScalar": "0x1",
      "l1BaseFeeScalar": "0x0",
      "l1BlobBaseFee": "0x4e31a5",
      "l1BlobBaseFeeScalar": "0x0",
      "l1Fee": "0x0",
      "l1GasPrice": "0x581797c",
      "l1GasUsed": "0x640"
    }
  ],
  "libraries": [],
  "pending": [],
  "returns": {},
  "timestamp": 1779612869393,
  "chain": 42220,
  "commit": "49af996"
}