{
  "transactions": [
    {
      "hash": "0xb91dc39b6273c11a01c60eeeceaecd9ac4654acdf55e36256ba8ab2cccf9d6c3",
      "transactionType": "CALL",
      "contractName": null,
      "contractAddress": "0xad3daddd4380d5c542da0f5efac3ac168a1cdf00",
      "function": "mint(address,uint256)",
      "arguments": [
        "0x548aDF78009e45Aa298EebA6dcCEB998AB726029",
        "1"
      ],
      "transaction": {
        "from": "0xafc8cf4cb5ad3e310f7253f1d7edd5030f3ae084",
        "to": "0xad3daddd4380d5c542da0f5efac3ac168a1cdf00",
        "gas": "0x1889c",
        "value": "0x0",
        "input": "0x40c10f19000000000000000000000000548adf78009e45aa298eeba6dcceb998ab7260290000000000000000000000000000000000000000000000000000000000000001",
        "nonce": "0x2",
        "chainId": "0xa4ec"
      },
      "additionalContracts": [],
      "isFixedGasLimit": false
    }
  ],
  "receipts": [
    {
      "status": "0x1",
      "cumulativeGasUsed": "0x1d2cf9",
      "logs": [
        {
          "address": "0xad3daddd4380d5c542da0f5efac3ac168a1cdf00",
          "topics": [
            "0xddf252ad1be2c89b69c2b068fc378daa952ba7f163c4a11628f55a4df523b3ef",
            "0x0000000000000000000000000000000000000000000000000000000000000000",
            "0x000000000000000000000000548adf78009e45aa298eeba6dcceb998ab726029"
          ],
          "data": "0x0000000000000000000000000000000000000000000000000000000000000001",
          "blockHash": "0x0fcabbd4012d4c9334933f1d417096ce201db0bb496c806d241d09e918cf79a8",
          "blockNumber": "0x4091aad",
          "blockTimestamp": "0x6a12a303",
          "transactionHash": "0xb91dc39b6273c11a01c60eeeceaecd9ac4654acdf55e36256ba8ab2cccf9d6c3",
          "transactionIndex": "0x7",
          "logIndex": "0xd5",
          "removed": false
        },
        {
          "address": "0xad3daddd4380d5c542da0f5efac3ac168a1cdf00",
          "topics": [
            "0x8d15f4be187d1cac44d7f56628a777d6c381a2f8e8aa445d3cef67eb5bd59344",
            "0x000000000000000000000000548adf78009e45aa298eeba6dcceb998ab726029"
          ],
          "data": "0x0000000000000000000000000000000000000000000000000000000000000001",
          "blockHash": "0x0fcabbd4012d4c9334933f1d417096ce201db0bb496c806d241d09e918cf79a8",
          "blockNumber": "0x4091aad",
          "blockTimestamp": "0x6a12a303",
          "transactionHash": "0xb91dc39b6273c11a01c60eeeceaecd9ac4654acdf55e36256ba8ab2cccf9d6c3",
          "transactionIndex": "0x7",
          "logIndex": "0xd6",
          "removed": false
        }
      ],
      "logsBloom": "0x00000001000000000000000000000000001020000000000000000000000000000000000000000000000000000000000000000000000000000000000000000004000000000000000000000008000000000000000000000000000000000000000000000000020000000000000000000800000000000000000000000010000000000000000000000000000000040000000000000000000010000000000000000000000000000000000000000000000000000000000000000000000000000000000000000002100000000000000000000000000000000000000000000000000020010000000000000000000000000000000000000000000000000008000000000000",
      "type": "0x2",
      "transactionHash": "0xb91dc39b6273c11a01c60eeeceaecd9ac4654acdf55e36256ba8ab2cccf9d6c3",
      "transactionIndex": "0x7",
      "blockHash": "0x0fcabbd4012d4c9334933f1d417096ce201db0bb496c806d241d09e918cf79a8",
      "blockNumber": "0x4091aad",
      "gasUsed": "0x11c3f",
      "effectiveGasPrice": "0x2e90fe98ce",
      "blobGasUsed": "0x64",
      "from": "0xafc8cf4cb5ad3e310f7253f1d7edd5030f3ae084",
      "to": "0xad3daddd4380d5c542da0f5efac3ac168a1cdf00",
      "contractAddress": null,
      "daFootprintGasScalar": "0x1",
      "l1BaseFeeScalar": "0x0",
      "l1BlobBaseFee": "0x356669",
      "l1BlobBaseFeeScalar": "0x0",
      "l1Fee": "0x0",
      "l1GasPrice": "0x39ce4fb",
      "l1GasUsed": "0x640"
    }
  ],
  "libraries": [],
  "pending": [],
  "returns": {},
  "timestamp": 1779606275709,
  "chain": 42220,
  "commit": "0aea05f"
}