{
  "transactions": [
    {
      "hash": "0x87c423b7e88bc524183244938cb0ff193d77eb7c31da29eb6cac91cda6bc2e31",
      "transactionType": "CALL",
      "contractName": null,
      "contractAddress": "0x17d4b03eab51f899baee1167141c251787590bd6",
      "function": "mint(address,uint256)",
      "arguments": [
        "0x548aDF78009e45Aa298EebA6dcCEB998AB726029",
        "2"
      ],
      "transaction": {
        "from": "0xafc8cf4cb5ad3e310f7253f1d7edd5030f3ae084",
        "to": "0x17d4b03eab51f899baee1167141c251787590bd6",
        "gas": "0x188c5",
        "value": "0x0",
        "input": "0x40c10f19000000000000000000000000548adf78009e45aa298eeba6dcceb998ab7260290000000000000000000000000000000000000000000000000000000000000002",
        "nonce": "0x25",
        "chainId": "0xa4ec"
      },
      "additionalContracts": [],
      "isFixedGasLimit": false
    }
  ],
  "receipts": [
    {
      "status": "0x1",
      "cumulativeGasUsed": "0x2a4e81",
      "logs": [
        {
          "address": "0x17d4b03eab51f899baee1167141c251787590bd6",
          "topics": [
            "0xddf252ad1be2c89b69c2b068fc378daa952ba7f163c4a11628f55a4df523b3ef",
            "0x0000000000000000000000000000000000000000000000000000000000000000",
            "0x000000000000000000000000548adf78009e45aa298eeba6dcceb998ab726029"
          ],
          "data": "0x0000000000000000000000000000000000000000000000000000000000000002",
          "blockHash": "0x8f9ec54c685825ba02f35b8081b3f79708552138957c05f014956d43ec3d5019",
          "blockNumber": "0x40944b6",
          "blockTimestamp": "0x6a12cd0c",
          "transactionHash": "0x87c423b7e88bc524183244938cb0ff193d77eb7c31da29eb6cac91cda6bc2e31",
          "transactionIndex": "0xd",
          "logIndex": "0xef",
          "removed": false
        },
        {
          "address": "0x17d4b03eab51f899baee1167141c251787590bd6",
          "topics": [
            "0x8d15f4be187d1cac44d7f56628a777d6c381a2f8e8aa445d3cef67eb5bd59344",
            "0x000000000000000000000000548adf78009e45aa298eeba6dcceb998ab726029"
          ],
          "data": "0x0000000000000000000000000000000000000000000000000000000000000002",
          "blockHash": "0x8f9ec54c685825ba02f35b8081b3f79708552138957c05f014956d43ec3d5019",
          "blockNumber": "0x40944b6",
          "blockTimestamp": "0x6a12cd0c",
          "transactionHash": "0x87c423b7e88bc524183244938cb0ff193d77eb7c31da29eb6cac91cda6bc2e31",
          "transactionIndex": "0xd",
          "logIndex": "0xf0",
          "removed": false
        }
      ],
      "logsBloom": "0x00000000000000000000000000000000001020000000000000000000000000000000000000000000000000000000000000000000000000800000000000000004000000000000000000000008000000000000000000000000000000000000040000000000020000000000000000000800000000000000000000000010000000000000000000000000000000040020000000000000000010000000000000000000000000000000000000000000000000000000000000000000000000000000000000000002000000000000000000000000000000000000000000000000000020010000000000000000000000000000000000000000000000000000000000000000",
      "type": "0x2",
      "transactionHash": "0x87c423b7e88bc524183244938cb0ff193d77eb7c31da29eb6cac91cda6bc2e31",
      "transactionIndex": "0xd",
      "blockHash": "0x8f9ec54c685825ba02f35b8081b3f79708552138957c05f014956d43ec3d5019",
      "blockNumber": "0x40944b6",
      "gasUsed": "0x11c5d",
      "effectiveGasPrice": "0x2e90fe98d3",
      "blobGasUsed": "0x64",
      "from": "0xafc8cf4cb5ad3e310f7253f1d7edd5030f3ae084",
      "to": "0x17d4b03eab51f899baee1167141c251787590bd6",
      "contractAddress": null,
      "daFootprintGasScalar": "0x1",
      "l1BaseFeeScalar": "0x0",
      "l1BlobBaseFee": "0x5acef0",
      "l1BlobBaseFeeScalar": "0x0",
      "l1Fee": "0x0",
      "l1GasPrice": "0x6929181",
      "l1GasUsed": "0x640"
    }
  ],
  "libraries": [],
  "pending": [],
  "returns": {},
  "timestamp": 1779617037324,
  "chain": 42220,
  "commit": "1431dc0"
}